:060000000A128A11122809
:10000800FE00030E83120313E8000408E9000A083F
:10001800EA007F08EB000A168A11FB2A0A128A11E5
:1000280015288317A730FD000830FE000430FF00B4
:100038009F3084000A168A1556260A128A11103033
:10004800840060300A168A1539260A128A11831329
:10005800DC308400EF300A168A1539260A128A1114
:10006800EC01ED01EE01EF0183010A168A151D2F3F
:100078003F3083160313CC008030CB000030CA0019
:100088000030C900B001B1014808F3004708F20088
:100098004608F1004508F0000030F7000030F6008F
:1000A8000030F5000030F4000A168A1194210A1273
:1000B8008A11031860286128722A7228831603138C
:1000C8003708CC003608CB003508CA003408C90008
:1000D8000130B0070318B10A0030B107413083126C
:1000E8000313A3002030A2000030A1000030A000BC
:1000F800831603134C0883120313A70083160313F4
:100108004B0883120313A600831603134A088312AD
:100118000313A50083160313490883120313A400CD
:100128000A128A15BB240A128A11831203132308A0
:1001380083160313B70083120313220883160313CD
:10014800B60083120313210883160313B500831224
:100158000313200883160313B400450883120313FE
:10016800CB0083160313460883120313CC008316AF
:100178000313470883120313CD008316031348089B
:1001880083120313CE008316031334088312031358
:10019800CB02831603133508031C350FD428D72840
:1001A80083120313CC02831603133608031C360F7D
:1001B800DE28E12883120313CD02831603133708C0
:1001C800031C370FE828EB2883120313CE0283168B
:1001D8000313831203134E08F3004D08F2004C0872
:1001E800F1004B08F0000A168A158E260A128A11A9
:1001F800F31B0E297308031D0F297208031D0F290D
:100208007108031D0F2902307002031D0B29031CFE
:100218000E290F2962288316031337088312031344
:10022800BD0083160313360883120313BC0083161C
:100238000313350883120313BB0083160313340812
:1002480083120313BA008316031348088312031397
:10025800C10083160313470883120313C0008316D3
:100268000313460883120313BF00831603134508BC
:1002780083120313BE000A168A1111240A128A1166
:10028800031C47294829622883160313450883124B
:100298000313CB0083160313460883120313CC0001
:1002A80083160313470883120313CD008316031321
:1002B800480883120313CE008316031349088312D8
:1002C8000313CB02831603134A08031C4A0F6D2934
:1002D800702983120313CC02831603134B08031CE3
:1002E8004B0F77297A2983120313CD028316031340
:1002F8004C08031C4C0F8129842983120313CE0256
:1003080083160313831203134E08F3004D08F200FB
:100318004C08F1004B08F0000A168A158E260A12BE
:100328008A11F31BA8297308031DA7297208031D46
:10033800A7297108031DA72902307002031DA429EB
:100348000318A729A829392A831603134C08C800BB
:100358004B08C7004A08C6004908C500722A413040
:10036800F3002030F2000030F1000030F000831676
:1003780003134C08F7004B08F6004A08F500490833
:10038800F4000A128A1582200A128A117308831649
:100398000313CC007208CB007108CA007008C900AA
:1003A800FF30B0070318B10AFF30B10745088312C0
:1003B8000313CB0083160313460883120313CC00E0
:1003C80083160313470883120313CD008316031300
:1003D800480883120313CE008316031349088312B7
:1003E8000313CB02831603134A08031C4A0FFD2983
:1003F800002A83120313CC02831603134B08031C31
:100408004B0F072A0A2A83120313CD0283160313FC
:100418004C08031C4C0F112A142A83120313CE0212
:1004280083160313831203134E08F3004D08F200DA
:100438004C08F1004B08F0000A168A158E260A129D
:100448008A11F31B382A7308031D372A7208031D03
:10045800372A7108031D372A02307002031D342A17
:100468000318372A382A392AA82983160313480873
:1004780083120313BD008316031347088312031363
:10048800BC0083160313460883120313BB008316AC
:100498000313450883120313BA00831603134C0889
:1004A80083120313C100831603134B08831203132B
:1004B800C000831603134A0883120313BF00831670
:1004C8000313490883120313BE000A168A11112464
:1004D8000A128A11031C712A722AB3298312031380
:1004E8004A0883160313A9002908AA0083120313D4
:1004F800EF1B7F2A802A8B2A6F0883160313A30019
:10050800831203136E0883160313A200912A063080
:1005180083160313A2000030A3002308AE002208AC
:10052800AD000130AD070318AE0A0030AE076630E3
:100538002A06031DA02AA12ABB2AB11FA42AA52A7C
:10054800AF2A3F30CC008030CB000030CA000030EA
:10055800C900B001B101673029060319B42AB52AC8
:10056800BB2A3008AD070318AE0A3108AE07B80138
:10057800B9014808BD004708BC004608BB0045084B
:10058800BA004C08B7004B08B6004A08B50049083D
:10059800B400B62B831603134C08F3004B08F20083
:1005A8004A08F1004908F0003D08F7003C08F60049
:1005B8003B08F5003A08F4000A128A1582200A124C
:1005C8008A11730883120313B0007208AF00710810
:1005D800AE007008AD000A168A11B5240A128A11F5
:1005E80083120313300883160313C1008312031305
:1005F8002F0883160313C000831203132E088316D3
:100608000313BF00831203132D0883160313BE00C0
:100618004108F3004008F2003F08F1003E08F000EE
:100628000A128A150C200A128A11710883160313FC
:10063800AC007008AB004C0883120313A7008316A4
:1006480003134B0883120313A600831603134A08E7
:1006580083120313A5008316031349088312031397
:10066800A40083160313410883120313A3008316FF
:100678000313400883120313A200831603133F08D1
:1006880083120313A100831603133E088312031376
:10069800A0000A128A15BB240A128A1183120313B6
:1006A8002308BD002208BC002108BB002008BA00AE
:1006B800831603133D0883120313C1008316031323
:1006C8003C0883120313C000831603133B088312EC
:1006D8000313BF00831603133A0883120313BE00E3
:1006E8000A168A1540270A128A11831203133D0835
:1006F80083160313BD00831203133C0883160313E8
:10070800BC00831203133B0883160313BB00831238
:1007180003133A0883160313BA004130F30020305C
:10072800F2000030F1000030F0004C08F7004B08F0
:10073800F6004A08F5004908F4000A128A158220D2
:100748000A128A11730883160313CC007208CB00AF
:100758007108CA007008C9000130B8070318B90A3F
:100768000030B9073908803A83120313CB00831687
:1007780003132E08803A831203134B02031DC82B60
:10078800831603132D083802031CCB2BCC2BCE2A3F
:10079800403083120313A300A030A2000030A10050
:1007A8000030A000831603134C0883120313A7001C
:1007B800831603134B0883120313A600831603132F
:1007C8004A0883120313A5008316031349088312EA
:1007D8000313A4000A128A15BB240A128A11831271
:1007E8000313230883160313C1008312031322087B
:1007F80083160313C00083120313210883160313FF
:10080800BF0083120313200883160313BE003D089C
:1008180083120313BD00831603133C0883120313CA
:10082800BC00831603133B0883120313BB00831613
:1008380003133A0883120313BA00831603134108FB
:1008480083120313C1008316031340088312031392
:10085800C000831603133F0883120313BF008316D7
:1008680003133E0883120313BE000A168A111124CB
:100878000A128A110318412C422C4D2C0030831681
:100888000313C1000030C0000030BF000030BE00BC
:10089800762C831603133D08F3003C08F2003B084E
:1008A800F1003A08F0004108F7004008F6003F0858
:1008B800F5003E08F4000A168A1194210A128A11DA
:1008C800031C672C682C762C831603132B186D2CAD
:1008D8006E2C762C0030C1000030C0000030BF0004
:1008E8000030BE00831603134108F3004008F200ED
:1008F8003F08F1003E08F0004808F7004708F600F6
:100908004608F5004508F4000A128A1557220A120B
:100918008A11730883160313BD007208BC0071089E
:10092800BB007008BA003D0883120313BD0083168C
:1009380003133C0883120313BC00831603133B08FC
:1009480083120313BB00831603133A08831203139D
:10095800BA004130A3002030A2000030A1000030CE
:10096800A00083160313370883120313A700831606
:100978000313360883120313A600831603133508DE
:1009880083120313A5008316031334088312031379
:10099800A4000A128A15BB240A128A1183120313AF
:1009A8002308C1002208C0002108BF002008BE009B
:1009B8000A168A1111240A128A11031CE42CE52C48
:1009C800382D013083160313B0070318B10A00301D
:1009D800B107413083120313A3002030A200003076
:1009E800A1000030A00083160313370883120313F5
:1009F800A70083160313360883120313A600831671
:100A08000313350883120313A50083160313340850
:100A180083120313A4000A128A15BB240A128A112E
:100A280083120313230883160313B70083120313D7
:100A3800220883160313B6008312031321088316B2
:100A48000313B50083120313200883160313B4009D
:100A580066302A06031D312D322D382D0130AD07A1
:100A68000318AE0A0030AE07831603133708CC000C
:100A78003608CB003508CA003408C9003108A1007F
:100A88003008A000A801A401A501B801B901AC2E45
:100A9800831603134C08F3004B08F2004A08F100D0
:100AA8004908F0003D08F7003C08F6003B08F5004F
:100AB8003A08F4000A128A1582200A128A11730869
:100AC80083120313B0007208AF007108AE007008FB
:100AD800AD000A168A11B5240A128A11831203136B
:100AE800300883160313C100831203132F088316DB
:100AF8000313C000831203132E0883160313BF00C9
:100B0800831203132D0883160313BE004108F30054
:100B18004008F2003F08F1003E08F0000A128A156A
:100B28000C200A128A117108803AFF0080307F0277
:100B3800031DA02D0A3070020318A32DA42DBA2D71
:100B4800831603134108F3004008F2003F08F10040
:100B58003E08F0000A128A150C200A128A11710840
:100B680083160313AC007008AB00C02D0930831640
:100B78000313AB000030AC002808031DC42DC52D9D
:100B8800F62DA11FC82DC92DF62D4308103E84004F
:100B98002E30831780000130C3070318C40A0030C1
:100BA800C407FF30B2070318B30AFF30B307A80120
:100BB800A80AF62D4308103E8400303083178000C1
:100BC8000130C3070318C40A0030C407FF30B20756
:100BD8000318B30AFF30B307FF30A4070318A50AA8
:100BE800FF30A50724082504031DFB2DFC2DDE2D51
:100BF8004308103E84002B08303E831780000130E4
:100C0800C3070318C40A0030C407FF30B20703182B
:100C1800B30AFF30B3074C0883120313A7008316E7
:100C280003134B0883120313A600831603134A0801
:100C380083120313A50083160313490883120313B1
:100C4800A40083160313410883120313A300831619
:100C58000313400883120313A200831603133F08EB
:100C680083120313A100831603133E088312031390
:100C7800A0000A128A15BB240A128A1183120313D0
:100C88002308BD002208BC002108BB002008BA00C8
:100C9800831603133D0883120313C100831603133D
:100CA8003C0883120313C000831603133B08831206
:100CB8000313BF00831603133A0883120313BE00FD
:100CC8000A168A1540270A128A11831203133D084F
:100CD80083160313BD00831203133C088316031302
:100CE800BC00831203133B0883160313BB00831253
:100CF80003133A0883160313BA004130F300203077
:100D0800F2000030F1000030F0004C08F7004B080A
:100D1800F6004A08F5004908F4000A128A158220EC
:100D28000A128A11730883160313CC007208CB00C9
:100D38007108CA007008C900FF30A0070318A10A8B
:100D4800FF30A1070130B8070318B90A0030B90706
:100D58003908803A83120313CB00831603132E0835
:100D6800803A831203134B02031DBE2E831603130E
:100D78002D0838020318C12EC22ED12E8316031354
:100D88004408803AFF0080307F02031DCD2E4B308F
:100D98004302031CD02ED12E4C2D4F308316031343
:100DA800B8000030B9003808103E8400831780016D
:100DB8001030F0004408F2004308F10010308312AC
:100DC8000313CB0083160313430883120313CB02C8
:100DD800831603133808831203134B070A168A1560
:100DE80089270A128A118316031343083802C3009D
:100DF8004408031C440A3902C4004208031D052F95
:100E0800072F0130082F003083120313CB00CC01C9
:100E18004B0883160313B800831203134C08831678
:100E28000313B900420803191A2F1B2F272FFF306D
:100E3800C3070318C40AFF30C4074308103E8400E0
:100E48004208831780003808B2023908031CB3032C
:100E5800B3024308103EFB003308FD003208FC00D3
:100E68002F080A168A1194200A128A110800F8001D
:100E780078080319402F412F552FF31F442F452F72
:100E8800552F7009FA007109FB007209FC007309FB
:100E9800FD00FA0A0319FB0A0319FC0A0319FD0AE3
:100EA8005D2F7308FD007208FC007108FB007008D4
:100EB800FA007308720471047004031D642F652F0F
:100EC8006E2F0030F3000030F2000030F1000030E7
:100ED800F000F22F9630F9007E2F0130FF007F08D6
:100EE800F90701300310FD0CFC0CFB0CFA0CFF3E5B
:100EF800031D762FFE307D05031D832F842F712F50
:100F0800A02F0130FF007F08F9070130FA070030F1
:100F180003180130FB07003003180130FC070030CC
:100F280003180130FD0701300310FD0CFC0CFB0C0D
:100F3800FA0CFF3E031D982FFF307D05031DA52FDA
:100F4800A62F852FB22F0130F9020130F4000310CB
:100F5800FA0DFB0DFC0DFD0DF40BAB2FFC1BB52F93
:100F6800B62FBC2F023079020318BB2FBC2FA72F36
:100F78007918BF2FC02FC82FFF30FA05FF30FB05A7
:100F88007F30FC05FF30FD050310F90C7908F400EB
:100F9800F501F601F70118300310F40DF50DF60D03
:100FA800F70DFF3E031DD02F7408FA047508FB04E3
:100FB8007608FC047708FD0478080319E42FE52F68
:100FC800EA2FF31FE82FE92FEA2FFD177D08F3001A
:100FD8007C08F2007B08F1007A08F000080073082A
:100FE8007204710470040319FA2FFB2FFD2F80304F
:060FF800F30608000800EA
:101008004134493451345934613469347134793450
:101018000310720D730DF9007908031D14281528A3
:101028001E280030F3000030F2000030F1000030DC
:10103800F00081287008F4007108F5007208F600C5
:101048007308F7001F300310F70CF60CF50CF40CBE
:10105800FF3E031D27287408F800F217FF30F0053B
:10106800FF30F105FF30F2050030F3059630F90244
:10107800F91F3F2840285A287908803A973E0318D4
:10108800462847284828152801300310F30CF20C8D
:10109800F10CF00CFF3E031D49280130FF007F08CA
:1010A800F907031D58285928482871282030790243
:1010B800031C5F2860286C2815280130F4000310F1
:1010C800F00DF10DF20DF30DF40B63280130F90268
:1010D8007908031D70287128612878080319752874
:1010E80076288128F009F109F209F309F00A0319B1
:1010F800F10A0319F20A0319F30A0800770880397C
:1011080083120313A4007708F8007807AB00F61FD2
:101118008E288F2890282B142B080319942895289B
:10112800A5282B0A031D99289A28A2280030F70021
:101138000030F6000030F5000030F400F617F70133
:10114800AD280030F7000030F6000030F500003020
:10115800F40073088039FF007F08A4067308F800BC
:101168007807AC00F21FB928BA28BB282C142C0821
:101178000319BF28C028D0282C0A031DC428C52855
:10118800CD280030F3000030F2000030F1000030CC
:10119800F000F217F301D8280030F3000030F20015
:1011A8000030F1000030F00073087204710470041C
:1011B800031DDF28E028F9280030F7000030F6008A
:1011C8000030F5000030F4008030F6047F30F7047A
:1011D8002408FF007F08F7047708F3007608F20078
:1011E8007508F1007408F000562A2B08031DFD2825
:1011F800FE2807290030F3000030F2000030F1002B
:101208000030F000562A2B08F800F9017908FB0095
:101218002C087802FA00031CFB037A087F3EA5001D
:101228007B080318013E003EA6007708A300760855
:10123800A2007508A1007408A0000030F700003073
:10124800F6000030F5000030F4000030AA0000304D
:10125800A9000030A8000030A700AC0183292C08A1
:1012680003193729382958290130F8000310A00D2F
:10127800A10DA20DA30DF80B3A290130F8000310B7
:10128800F40DF50DF60DF70DF80B4329AA1F4D299E
:101298004E294F2974140130F8000310A70DA80D2A
:1012A800A90DAA0DF80B512973082302031D6629FD
:1012B80072082202031D662971082102031D66298E
:1012C80070082002031C69296A297F292A177008D7
:1012D800A0027108031C710F72297329A1027208F8
:1012E800031C720F78297929A2027308031C730F53
:1012F8007E297F29A3020130FF007F08AC071A303E
:101308002C02031C88298929332923082204210453
:101318002004031990299129B0292714B0290130F4
:10132800F8000310F40DF50DF60DF70DF80B9529DF
:10133800AA1F9F29A029A12974140130F8000310BD
:10134800A70DA80DA90DAA0DF80BA329FF30A50715
:101358000318A60AFF30A607F61FB329B429932954
:10136800AC01AA1FB829B929D529FF302705F800EB
:10137800FF302805F900FF302905FA007F302A05DB
:10138800FB007B087A04790478040319CC29CD2959
:10139800D029AC01AC0AD529741CD329D429D52964
:1013A800CD292C080319D929DA290B2A0130F40789
:1013B800003003180130F507003003180130F60734
:1013C800003003180130F707771CEB29EC290B2AAA
:1013D8007408F8007508F9007608FA007708FB0029
:1013E8000130FC007B0DFB0CFA0CF90CF80CFC0B23
:1013F800F6297B08F7007A08F6007908F5007808DE
:10140800F4000130A5070318A60A0030A60726082D
:10141800803AFF0080307F02031D142AFF30250226
:10142800031C172A182A262AFF3083120313A50043
:101438000030A6000030F7000030F6000030F5005C
:101448000030F400831203132608803AFF0080302E
:101458007F02031D312A013025020318342A352A58
:10146800422A83120313A501A6010030F7000030B9
:10147800F6000030F5000030F400A40183120313D5
:101488002508AB002B1C492A4A2A4C2AF617502A51
:101498007F30FF007F08F6052B08F8000310780C52
:1014A800F700EC28080073088039F80073088312E5
:1014B8000313A0002007FA00F21F632A642A652A92
:1014C8007A147A080319692A6A2A7A2A7A0A031D79
:1014D8006E2A6F2A772A0030F3000030F2000030BD
:1014E800F1000030F000F217F301822A0030F30017
:1014F8000030F2000030F1000030F0007708803949
:10150800F9007908780603198A2A8B2A8C2A781711
:101518007708A0002007F900F61F932A942A952A35
:10152800791479080319992A9A2AAA2A790A031D8B
:101538009E2A9F2AA72A0030F7000030F6000030C4
:10154800F5000030F400F617F701B22A0030F70072
:101558000030F6000030F5000030F4007A08790217
:101568000318B72AB82ADE2A781FBB2ABC2AC02A41
:101578008030FF007F08F8067A08FB007908FA0037
:101588007B08F9007008FB007408F0007B08F40081
:101598007108FB007508F1007B08F5007208FB0074
:1015A8007608F2007B08F6007308FB007708F30062
:1015B8007B08F700FB017908A000A1012108A3001E
:1015C8007A082002A200031CA3032308803AFF0024
:1015D80080307F02031DF22A1A302202031CF52AEA
:1015E800F62A2F2B7308720471047004031DFD2A58
:1015F800FF2A0130002B0030FB000030F3000030E0
:10160800F2000030F1000030F0007908FA00352BC4
:101618007B1C0F2B102B192B7B0883120313A000A4
:101628000310200C0138FB001B2B0310FB0C701C53
:101638001E2B1F2B202BFB17013083120313A00036
:10164800730DF30CF20CF10CF00CA00B242B0130F1
:10165800FF007F08FA0779087A02031C342B352B20
:101668000C2B781B382B392B862B7A08031D3D2B26
:101678003E2B472B0030F3000030F2000030F10021
:101688000030F000BA2C7408F0077508031103182D
:10169800013E0319502BF107760803110318013E88
:1016A8000319572BF207770803110318013E031992
:1016B8005E2BF307731C612B622B3E2C7B1C652B66
:1016C800662B6F2B7B0883120313A0000310200CDA
:1016D8000138FB00712B0310FB0C701C742B752B4D
:1016E800762BFB17013083120313A000730DF30C44
:1016F800F20CF10CF00CA00B7A2B0130FF007F08E4
:10170800FA073E2C7308803AFF007708803A7F0278
:10171800031D982B76087202031D982B7508710219
:10172800031D982B7408700203189B2B9C2BF62B17
:10173800FF3083120313A000FF30A100FF30A20086
:10174800FF30A3007408A4007508A5007608A60059
:101758007708A7007008A4027108031C710FB52B45
:10176800B62BA5027208031C720FBB2BBC2BA6025A
:101778007308031C730FC12BC22BA7022408A007F0
:1017880025080318250FC92BCA2BA10726080318FB
:10179800260FCF2BD02BA20727080318270AA30749
:1017A8002308F3002208F2002108F1002008F000C5
:1017B8008030FF007F08F806FB09FB0A7B08031D41
:1017C800E62BE72B042C0130F0070030031801301A
:1017D800F107003003180130F20700300318013018
:1017E800F307042C7408F0027508031C750FF10246
:1017F8007608031C760FF2027708031C770FF302B2
:101808007308720471047004031D0B2C0C2C3A2C01
:101818007B08031D102C112C3A2C0030F3000030EB
:10182800F2000030F1000030F000BA2C01308312D1
:101838000313A0000310F00DF10DF20DF30DA00B32
:101848001E2CFB1F282C292C2A2C70147B1C2D2CB9
:101858002E2C312C0314FB0D332C0310FB0D7A08AE
:101868000319372C382C3A2C0130FA02F21F3D2C80
:101878003E2C1A2CF901FB1F422C432C512C7B08BF
:101888007F390319482C492C4C2CF901F90A512CA1
:10189800701C4F2C502C512C492C79080319552CAD
:1018A800562C8C2C0130F007003003180130F1075A
:1018B800003003180130F207003003180130F30735
:1018C800731C672C682C8C2C700883120313A000DF
:1018D8007108A1007208A2007308A3000130A400D7
:1018E800230DA30CA20CA10CA00CA40B742C230890
:1018F800F3002208F2002108F1002008F0007A0A1B
:101908000319872C882C8C2C0130FF007F08FA07DC
:101918007A0A0319902C912C962C7A08031D952C81
:10192800962CA42C0030F3000030F2000030F100B7
:101938000030F0007A08031DA22CA32CA42CF80177
:101948007A1CA72CA82CAA2CF217AE2C7F30FF00EB
:101958007F08F2057A0883120313A0000310200CF5
:10196800F300F81FB82CB92CBA2CF317080083120F
:10197800031323088039AD002308A8002807B30003
:10198800A21FC72CC82CC92C331433080319CD2C1B
:10199800CE2CDD2C330A031DD22CD32CDB2C0030AB
:1019A800A3000030A2000030A1000030A000A21760
:1019B800E52C0030A3000030A2000030A100003068
:1019C800A00027088039FF007F08AD062708A80077
:1019D8002807B200A61FF12CF22CF32C321432087F
:1019E8000319F72CF82C072D320A031DFC2CFD2CAB
:1019F800052D0030A7000030A6000030A5000030FB
:101A0800A400A6170F2D0030A7000030A600003054
:101A1800A5000030A40032080319132D142D192D28
:101A28003308031D182D192D222D0030A300003076
:101A3800A2000030A1000030A000FF2F2008F00015
:101A480026080A168A15AF270A128A157108831202
:101A58000313B9007008B8003808A800A901AA0142
:101A6800AB012B08B1002A08B0002908AF002808EC
:101A7800AE003908A800A901AA01AB012B08B700DC
:101A88002A08B6002908B5002808B4002108F00083
:101A980025080A168A15AF270A128A1571088312B3
:101AA8000313B9007008B8003808A800A901AA01F2
:101AB800AB012808AE07290803110318013E0319D2
:101AC800662DAF072A0803110318013E03196D2D6F
:101AD800B0072B0803110318013E0319742DB10731
:101AE8003908A800A901AA01AB012808B4072908E8
:101AF80003110318013E0319822DB5072A080311A3
:101B08000318013E0319892DB6072B080311031882
:101B1800013E0319902DB7072208F00024080A1681
:101B28008A15AF270A128A15710883120313B900A0
:101B38007008B8003808A800A901AA01AB01280854
:101B4800AE07290803110318013E0319AC2DAF078E
:101B58002A0803110318013E0319B32DB0072B08F7
:101B680003110318013E0319BA2DB1073908A8005B
:101B7800A901AA01AB012808B40729080311031811
:101B8800013E0319C82DB5072A0803110318013EA1
:101B98000319CF2DB6072B0803110318013E0319AB
:101BA800D62DB7070830A8000310AE0DAF0DB00D45
:101BB800B10DA80BD82D2108F00024080A168A15A3
:101BC800AF270A128A15710883120313B900700827
:101BD800B8003808A8003908A900AA01AB012808EC
:101BE800AE07290803110318013E0319FC2DAF079E
:101BF8002A0803110318013E0319032EB0072B0806
:101C080003110318013E03190A2EB1072008F0003A
:101C180025080A168A15AF270A128A157108831231
:101C28000313B9007008B8003808A8003908A900DB
:101C3800AA01AB012808AE07290803110318013EC1
:101C48000319272EAF072A0803110318013E0319A9
:101C58002E2EB0072B0803110318013E0319352E49
:101C6800B1070830A8000310AE0DAF0DB00DB10DCF
:101C7800A80B372E2008F00024080A168A15AF276B
:101C88000A128A15710883120313B9007008B80084
:101C98003808A8003908A900AA01AB012808AE072E
:101CA800290803110318013E03195B2EAF072A0800
:101CB80003110318013E0319622EB0072B08031104
:101CC8000318013E0319692EB1072108F000260800
:101CD8000A168A15AF270A128A1571088312031388
:101CE800B9007008B8003808A8003908A900AA0186
:101CF800AB012808B407290803110318013E03198A
:101D0800862EB5072A0803110318013E03198D2EE4
:101D1800B6072B0803110318013E0319942EB707C1
:101D28002208F00025080A168A15AF270A128A1514
:101D3800710883120313B9007008B8003808A800A6
:101D48003908A900AA01AB012808B407290803111A
:101D58000318013E0319B12EB5072A080311031809
:101D6800013E0319B82EB6072B0803110318013ECC
:101D78000319BF2EB7072208F00026080A168A158D
:101D8800AF270A128A15710883120313B900700865
:101D9800B8003808A8003908A900AA01AB01083022
:101DA8000310A80DA90DAA0DAB0DFF3E031DD42EDF
:101DB8002808B407290803110318013E0319E52E62
:101DC800B5072A0803110318013E0319EC2EB607BC
:101DD8002B0803110318013E0319F32EB7072E0829
:101DE800A8002F08A9003008AA003108AB00183055
:101DF8000310AB0CAA0CA90CA80CFF3E031DFC2E6B
:101E08002808B407290803110318013E03190D2FE8
:101E1800B5072A0803110318013E0319142FB60742
:101E28002B0803110318013E03191B2FB7070830AD
:101E3800A8000310AE0DAF0DB00DB10DA80B1D2FEE
:101E480033083207A800A901A90D2808823EB80066
:101E580029080318013EFF3EB9004F2F0130A800A2
:101E68000310B40DB50DB60DB70DA80B342FB11F67
:101E78003E2F3F2F402F34140130A8000310AE0D21
:101E8800AF0DB00DB10DA80B422FFF30B8070318E6
:101E9800B90AFF30B907B61F522F532F322FB2019C
:101EA800B11F572F582F742FFF302E05A800FF3071
:101EB8002F05A900FF303005AA007F303105AB009F
:101EC8002B082A042904280403196B2F6C2F6F2F61
:101ED800B201B20A742F341C722F732F742F6C2F17
:101EE80032080319782F792FAA2F0130B407003050
:101EF80003180130B507003003180130B607003069
:101F080003180130B707371C8A2F8B2FAA2F3408E4
:101F1800A8003508A9003608AA003708AB00013028
:101F2800AC002B0DAB0CAA0CA90CA80CAC0B952F74
:101F38002B08B7002A08B6002908B5002808B400FD
:101F48000130B8070318B90A0030B9073908803AD0
:101F5800FF0080307F02031DB32FFF303802031CBF
:101F6800B62FB72FC22F7F3083120313B7008030EC
:101F7800B6000030B5000030B400F32F831203130D
:101F88003908803AFF0080307F02031DCD2F0130D1
:101F980038020318D02FD12FDD2F003083120313FE
:101FA800B7000030B6000030B5000030B400AD0115
:101FB800F32F831203133808B300FF30B405FF3042
:101FC800B5057F30B6050030B705331CEC2FED2F73
:101FD800EE2FB6173308A8000310280CB7002D08F9
:101FE800FF007F08B7043708A3003608A2003508A9
:081FF800A1003408A00008005C
:1020080083120313D800831603134F088312031394
:10201800D9001C28593083160313CD005008CE0070
:102028008312031358080A168A11DD260A168A1124
:1020380083120313590884000A168A150A200A16FF
:102048008A11003A031D29282A280E28831603130B
:10205800CF01D0010800831603179C0008301C022A
:102068000318372838285D28943084009F30900062
:1020780004089100083092001008840083170008B3
:102088009300900A1108840013088000910A920BAB
:1020980040281C08943E84000008831203139F0004
:1020A8000930831603179000900B582883120313E6
:1020B8001F150800831603179000101C6428652854
:1020C80069288312031306146C288312031306105D
:1020D80083160317901C712872287628831203131D
:1020E8008614792883120313861083160317101D8C
:1020F8007E287F28832883120313061586288312D7
:102108000313061183160317901D8B288C2890281B
:10211800831203138615932883120313861108006C
:1021280083120313A700FD1F9A289B289D28FC01F2
:10213800FD01A501A601B5282030F0000030F1000E
:10214800831203132708F2000A168A11E2210A16DD
:102158008A11013083120313A5070318A60A003059
:10216800A6072608803AA4007D08803A2402031DA9
:10217800BF287C082502031CC228C328A028831274
:1021880003132708F8007B080A168A15D6270A16AB
:102198008A110800F40074080F39F2007408F03945
:1021A800F3008312031306167308F10004300310BA
:1021B800F10CFF3E031DDB2871080A168A15FB2661
:1021C8000A168A118312031386165330F100F10B95
:1021D800EB288312031386125330F100F10BF22817
:1021E80072080A168A15FB260A168A118312031327
:1021F80086165330F100F10BFF2883120313861261
:102208005330F100F10B06290800FA01FB012E29D1
:102218007A087507F8007608F7000318F70AFA1F16
:102228001629F7037708F900790883120313FF00CA
:10223800780884000A168A1500200A168A110A16D8
:102248008A11CE200A168A110130FA070318FB0AF0
:102258000030FB077A087507F8007608F7000318BE
:10226800F70AFA1F3829F7037708F9007908831263
:102278000313FF00780884000A168A1500200A163E
:102288008A11003A031D49294A290C290800F5003A
:102298007503031D502951296D2973087F3EF800E5
:1022A8007808F40004300310F40CFF3E031D57298E
:1022B8007408F60078080F39F70076080A168A15A8
:1022C80079260A168A1177080A168A1579260A16AF
:1022D8008A1102307506031D722973298F29730824
:1022E800BF3EF8007808F40004300310F40CFF3EF9
:1022F800031D79297408F60078080F39F700760865
:102308000A168A1579260A168A1177080A168A156E
:1023180079260A168A110C30F400F40B912908006A
:1023280000307005F80000307105F9008030720542
:10233800FA007F307305FB007B087A04790478047F
:10234800031DA729A829B0290030F3000030F200A6
:102358000030F1000030F00000307405F800003063
:102368007505F90080307605FA007F307705FB00A7
:102378007B087A0479047804031DC329C429CC296D
:102388000030F7000030F6000030F5000030F400AF
:1023980077087306031DDA2976087206031DDA2901
:1023A80075087106031DDA29740870060319DD29FA
:1023B800DE29E0290310E129031408007208031933
:1023C800E629E729EC297208031DEB29EC29F329F2
:1023D80070080A128A11FE270A168A11372A72080B
:1023E800093E840083130008F300840A0008F400FF
:1023F800730874040319012A022A202A7208093E64
:1024080084000008F300840A0008F4007208023E01
:1024180084000008F500840A0008F6007608803A6F
:10242800F7007408803A7702031D1C2A73087502A6
:1024380003181F2A202A372A7208023E84008313B1
:102448000008F3007208840000087307F400740899
:102458008400700880007208023E84000130800702
:10246800840A0318800A0800FB00F901FA017B08B6
:1024780084008313000884000A168A150A200A16A5
:102488008A112A3A031D492A4A2A7A2A0130FF006A
:102498007B0884007F088007760884000008FF0016
:1024A800023080077F0884000008F900840A0008C9
:1024B800FA008B2A7A08F1007908F0000A30F20055
:1024C8000030F3000A168A1564270A168A1178085C
:1024D8007007F9000030031801307107FA00013065
:1024E800FF007B0884007F08831380077B08840033
:1024F800000884000A168A150A200A168A11D03E96
:10250800F8000A307802031C8A2A8B2A5E2A7A0885
:10251800F7007908F600080083160313860186126F
:10252800061200300A168A115E200A168A11273010
:10253800831603179400F4309300930BA12A940B8D
:10254800A12A00005230831603179300930BAA2A7E
:10255800000003300A168A15BE260A168A110730AB
:102568008316031794007C309300930BB92A940BBD
:10257800B92A000003300A168A15BE260A168A11DF
:102588003130831603179300930BC82A03300A16B9
:102598008A15BE260A168A1102300A168A15BE2620
:1025A8000A168A1102300A168A15BE260A168A11D8
:1025B80008300A168A15BE260A168A1100300A162D
:1025C8008A15BE260A168A110C300A168A15BE26E6
:1025D8000A168A1100300A168A15BE260A168A11AA
:1025E80006300A168A15BE260A168A1108000C1F1C
:1025F800FE2AFF2A792B1E0883160313DB001E0808
:10260800DA003E3083120313A300F930A200DB3056
:10261800A1002330A000831603135A08F0005B08BA
:10262800F100F201F30100300A128A113B270A1661
:102638008A11730883120313A7007208A600710891
:10264800A5007008A4000A128A15BB240A168A116C
:1026580083120313230883160313D9008312031369
:10266800220883160313D800831203132108831644
:102678000313D70083120313200883160313D6000D
:102688000E30D1005908D5005808D4005708D30097
:102698005608D200E5300A168A15DA260A168A1173
:1026A8000530F30001300A168A114B210A168A11E7
:1026B8000130F5008030F6000A168A1109210A1641
:1026C8008A110530F30002300A168A114B210A16C6
:1026D8008A11E530F5000030F6000A168A11092142
:1026E8000A168A11831203130C136B08FF006A0879
:1026F8008A0069088400680E8300FE0E7E0E0900B9
:1027080083160313630883120313A50083160313A8
:10271800620883120313A40083160313610883124B
:102728000313A30083160313600883120313A20084
:102738007308A5007208A4007108A3007008A2001D
:102748002208F4002308F5002408F6002508F700FD
:1027580017300310F70CF60CF50CF40CFF3E031DB4
:10276800AD2BFF307405A00000307505A1002008CE
:102778002104031DC02BC12BE42B2208F4002308DD
:10278800F5002408F6002508F70001300310F40DC1
:10279800F50DF60DF70DFF3E031DCA2B77087604DD
:1027A80075047404031DD92BDA2BDF2B0230F000DB
:1027B8000030F100102C0330F0000030F100102C34
:1027C800200A2104031DE92BEA2B0C2C2208F40013
:1027D8002308F5002408F6002508F700093003103F
:1027E800F40DF50DF60DF70DFF3E031DF32B7708DD
:1027F8007604750474040319022C042C0130052C8A
:102808000030F800F9017808F0007908F100102C80
:102818000430F0000030F100080000308312031388
:102828003A05C20000303B05C30080303C05C400B7
:102838007F303D05C5004508440443044204031D98
:10284800262C272C2F2C0030BD000030BC00003077
:10285800BB000030BA0000303E05C20000303F0522
:10286800C30080304005C4007F304105C5004508DD
:10287800440443044204031D422C432C4B2C0030D7
:10288800C1000030C0000030BF000030BE00BD1FD6
:102898004E2C4F2C732C0030C2000030C300003087
:1028A800C4008030C5003A08C2023B08031C3B0F35
:1028B8005E2C5F2CC3023C08031C3C0F642C652C67
:1028C800C4023D08031C3D0F6A2C6B2CC502450849
:1028D800BD004408BC004308BB004208BA00C11F41
:1028E800762C772C9B2C0030C2000030C3000030BF
:1028F800C4008030C5003E08C2023F08031C3F0FD9
:10290800862C872CC3024008031C400F8C2C8D2C6E
:10291800C4024108031C410F922C932CC5024508A0
:10292800C1004408C0004308BF004208BE00803010
:10293800BD068030C10641083D02031DAD2C40088C
:102948003C02031DAD2C3F083B02031DAD2C3E0885
:102958003A020318B02CB12CB32C0310B42C031476
:102968000800831603135F0883120313C00083163D
:1029780003135E0883120313BF00831603135D0855
:1029880083120313BE00831603135C088312031318
:10299800BD003008C0002F08BF002E08BE002D085B
:1029A800BD003D08B1003E08B2003F08B300400832
:1029B800B40017300310B40CB30CB20CB10CFF3ECA
:1029C800031DDE2CFF303105B50000303205B6009E
:1029D8003508813EBB0036080318013EFF3EBC00A7
:1029E8003C08803AFF0080307F02031DFD2C173021
:1029F8003B02031C002D012D022DC32D831203134E
:102A0800BC1B072D082D782D3B0AFF00FF30B100B5
:102A1800FF30B2007F30B3000030B400182D340D01
:102A2800B40CB30CB20CB10CFF0B132D3408BA0064
:102A38003308B9003208B8003108B70037083D0537
:102A4800B10038083E05B20039083F05B3003A081E
:102A58004005B4003408330432043104031D352D15
:102A6800362D372D012D3D08B1003E08B2003F0834
:102A7800B3004008B4001F300310B40CB30CB20C00
:102A8800B10CFF3E031D402D3408330432043104D9
:102A980003194F2D502D672D3708BD07380803112E
:102AA8000318013E0319592DBE07390803110318ED
:102AB800013E0319602DBF073A0803110318013EB0
:102AC8000319672DC0073709B1003809B200390961
:102AD800B3003A09B4003108BD053208BE05330811
:102AE800BF053408C005BB2D3D08B1003E08B20043
:102AF8003F08B3004008B4001F300310B40CB30CF7
:102B0800B20CB10CFF3E031D812D3408330432048E
:102B18003104031D902D912D9A2D0030C0000030F6
:102B2800BF000030BE000030BD00BB2D3D08B10025
:102B38003E08B2003F08B3004008B400013003105B
:102B4800B10DB20DB30DB40DFF3E031DA32D340816
:102B58003304320431040319B22DB32DBB2DBF3019
:102B6800C0008030BF000030BE000030BD0040080B
:102B7800B0003F08AF003E08AE003D08AD000800B9
:102B880083160313AF00C201831203134908831687
:102B98000313C80083120313480883160313C700DE
:102BA80083120313470883160313C6008312031303
:102BB800460883160313C500480883120313BD0093
:102BC80083160313470883120313BC0083160313E9
:102BD800460883120313BB008316031345088312A8
:102BE8000313BA000030C1000030C0000030BF003D
:102BF8000030BE000A168A1111240A168A11031819
:102C0800062E072E222E83160313C201C20A480875
:102C1800F3004708F2004608F1004508F0000A12E0
:102C28008A11F3270A168A11730883160313C8003A
:102C38007208C7007108C6007008C5008316031320
:102C4800C301C401831203136D0883160313B30071
:102C5800831203136C0883160313B2004208031986
:102C6800362E372E472E4208031D3B2E3C2E412E72
:102C78002B30A6000030A700452E2D30A6000030CE
:102C8800A7002608C2004808F3004708F2004608D3
:102C9800F1004508F0000A168A1184230A168A11E1
:102CA80070037104031D592E5A2E912E8316031397
:102CB80042080319602E612E712E420883120317F1
:102CC8009000FF3083160313B2070318B30AFF30CE
:102CD800B3070130C3000030C4001330F0004308CC
:102CE800103E0A168A15A3260A168A11FD30831685
:102CF8000313B2070318B30AFF30B3071030FB0001
:102D08003308FD003208FC002F080A168A119420A7
:102D18000A168A110A128A113A2F831603134808D1
:102D2800F3004708F2004608F1004508F0000A16CB
:102D38008A1184230A168A1170087104031DA52EAE
:102D4800A82E0A128A113C28831603134208031975
:102D5800AE2EAF2EBF2E4208831203179000FF300D
:102D680083160313B2070318B30AFF30B307013001
:102D7800C3000030C4001730F0004308103E0A16A4
:102D88008A15A3260A168A11FD3083160313B20783
:102D98000318B30AFF30B3071030FB003308FD00F7
:102DA8003208FC002F080A168A1194200A168A1184
:102DB8008E2E83120313D500831603134D08840047
:102DC8008313000884000A168A150A200A168A1135
:102DD800253A031DF02EF12EE62F0130FF004D0895
:102DE80084007F08800783120313EC01ED010310B0
:102DF80000300318013083160313E400FF308312F8
:102E08000313EE00FF30EF00831603134D08840010
:102E1800000884000A168A150A200A168A112E3A12
:102E2800031D172F182F2C2F0130FF004D08840089
:102E38007F0880074E08F6004D080A168A113822C6
:102E48000A168A11770883120313EF007608EE003A
:102E5800831603134D088400831300088312031399
:102E6800D700570884000A168A150A200A168A11FC
:102E7800D600482F0130FF007F08D7075B2F6C3042
:102E8800D6005B2FD6015B2F5608CF00D001500823
:102E9800003A0319502F462F4F084C3A03193E2F7A
:102EA8002A3A0319432F0A3A03193E2F462F570887
:102EB80084000A168A150A200A168A11663A031D22
:102EC800662F672FDC2F982F831603134E08840074
:102ED8000008FF00043080077F0884000008831280
:102EE8000313D100840A0008D200840A0008D30022
:102EF800840A0008D400A82F831603134E08840000
:102F08000008FF00043080077F088400000883124F
:102F18000313D100840A0008D200840A0008D300F1
:102F2800840A0008D400A82F5608CF00D001500802
:102F3800003A0319A02FA82F4F084C3A0319802FE5
:102F4800203A0319682FA82F831603134D0884000D
:102F5800831203135708013E8000C92F5408C90083
:102F68005308C8005208C7005108C6005708840013
:102F78000A168A150A200A168A11CA0055080A165E
:102F88008A11C4250A168A11FF2F570884000A16C9
:102F98008A150A200A168A11CF00D0015008003A73
:102FA8000319D72FDC2F4F08663A0319B22FDC2FED
:102FB8000130FF00831603134D0884007F08831334
:102FC8008007FF2F4D088400000884000A168A1520
:102FD8000A200A168A1183120313CF00D0014F0862
:102FE800F0005008F1005508F2000A168A11E22193
:102FF8000A168A11DC2F0800FF1B0A2883137F1882
:1030080083170008840A0319FF0A080018308A0089
:103018000408840A82070034543465346D347034EB
:1030280065347234613474347534723465343A34C6
:10303800003425342E3433346634003469346E3425
:0C304800663400346E3461346E340034A1
:103C720064008001840A04060319003404063A2E03
:103C82004130831203139F008030831603139F0079
:103C9200831203130C13831603130C170B178B17C2
:103CA20008007E088A007F0882000A168A155226BA
:103CB2000A168A158000840A04087D060319003456
:103CC200FF0A0319FE0A562E00300A168A15BE266E
:103CD2000A168A1501300A168A15BE260A168A1590
:103CE2001A30831603179300930B752E00000800F9
:103CF200F20083120313061272080A168A15FB26B3
:103D02000A168A158312031386165330F100F10B3B
:103D1200882E8312031386120800F31B912E922E13
:103D2200932EA22E7009F0007109F1007209F200BF
:103D32007309F300F00A0319F10A0319F20A0319CD
:103D4200F30A0800F2007208F1000130F007FF30B8
:103D5200700784000A168A150A200A168A15FF00BF
:103D6200710884000130F1077F0883178000000882
:103D7200031DBC2EBD2EA62E08008316031792002B
:103D82008312031306128316031712080A168A11E6
:103D92005E200A168A158312031386165230831682
:103DA20003179100910BD32E000083120313861286
:103DB200080083120313DB00D230DC005B08DD0055
:103DC200DF01E001E601E701831603135108CF008A
:103DD2005C30D0005D300A168A1104200A168A155A
:103DE200831203135F085B07DA005A088400831307
:103DF20080010800F000701CFF2E002F042F831298
:103E020003130614072F831203130610F01C0A2F44
:103E12000B2F0D2F86140E2F8610701D112F122FAF
:103E2200142F0615152F0611F01D182F192F1B2FF1
:103E320086151C2F861108000A168A1541260A16B5
:103E42008A150A168A1190220A168A150A168A15E6
:103E520065260A168A1500300A168A112F200A16BC
:103E62008A150D30831603179E00FB309D009D0BB3
:103E7200382F9E0B382F2C2F0A128A1112288030CD
:103E820083120313BD064108F3004008F2003F0805
:103E9200F1003E08F0003D08F7003C08F6003B0840
:103EA200F5003A08F4000A128A1557220A168A15F2
:103EB200730883120313BD007208BC007108BB00B3
:103EC2007008BA000800F401F501701C692F6A2F0E
:103ED200702F7208F4070318F50A7308F50701300A
:103EE2000310F20DF30DFF3E031D712F013003107D
:103EF200F10CF00CFF3E031D782F70087104031DB6
:103F0200832F842F662F7508F1007408F0000800D3
:103F1200F4007008F6007408F500A02F76088400FB
:103F220083170008F3000130FF007F08F6077508C9
:103F32008400730880000130FF007F08F50701301C
:103F4200F1020030031CF203F202710A031DAD2FCD
:103F5200720A031DAD2FAE2F8F2F0800F800F40157
:103F6200F5017008F200F3017208F6007308F70019
:103F7200781CBC2FBD2FC32F7608F4070318F50A4F
:103F82007708F50701300310F60DF70DFF3E031D0C
:103F9200C42F0310F80C7808031DD02FD12FB92F8E
:103FA2007508F1007408F000080083120313A300DF
:103FB200A101A201F22F2008F900FA017908F0000C
:103FC2007A08F1007808F2000A168A11E2210A162C
:103FD2008A15013083120313A1070318A20A0030C5
:103FE200A20721082307F900790884008317000833
:0E3FF200A0002008031DFE2FFF2FDC2F08006B
:02400E00713F00
:00000001FF
