:060000000A128A11122809
:10000800FE00030E83120313C9000408CA000A087D
:10001800CB007F08CC000A128A111C2D0A128A1103
:10002800152883135830FD000D30FE00A230FF0064
:10003800503084000A128A15D0250A128A11A0307D
:100048008400D4300A128A159A250A128A11D80116
:10005800D901DA01DB01DC0183010A128A15842E39
:100068008312031323088039AD002308A80028074A
:10007800B300A21F4028412842283314330803192B
:10008800462847285628330A031D4B284C2854284D
:100098000030A3000030A2000030A1000030A00012
:1000A800A2175E280030A3000030A2000030A10093
:1000B8000030A00027088039FF007F08AD06270818
:1000C800A8002807B200A61F6A286B286C283214DB
:1000D80032080319702871288028320A031D7528F0
:1000E80076287E280030A7000030A6000030A50042
:1000F8000030A400A61788280030A7000030A6000A
:100108000030A5000030A400320803198C288D287F
:1001180092283308031D912892289B280030A300B9
:100128000030A2000030A1000030A000782B200889
:10013800F00026080A128A155D260A128A1171082B
:1001480083120313B9007008B8003808A800A90181
:10015800AA01AB012B08B1002A08B0002908AF009A
:100168002808AE003908A800A901AA01AB012B088C
:10017800B7002A08B6002908B5002808B4002108E5
:10018800F00025080A128A155D260A128A117108DC
:1001980083120313B9007008B8003808A800A90131
:1001A800AA01AB012808AE07290803110318013E6C
:1001B8000319DF28AF072A0803110318013E0319A2
:1001C800E628B0072B0803110318013E0319ED2890
:1001D800B1073908A800A901AA01AB012808B4078A
:1001E800290803110318013E0319FB28B5072A083B
:1001F80003110318013E03190229B6072B0803113E
:100208000318013E03190929B7072208F00024083A
:100218000A128A155D260A128A11710883120313BD
:10022800B9007008B8003808A800A901AA01AB01F4
:100238002808AE07290803110318013E03192529C8
:10024800AF072A0803110318013E03192C29B00728
:100258002B0803110318013E03193329B107390884
:10026800A800A901AA01AB012808B40729080311AD
:100278000318013E03194129B5072A080311031879
:10028800013E03194829B6072B0803110318013E3C
:1002980003194F29B7070830A8000310AE0DAF0D9A
:1002A800B00DB10DA80B51292108F00024080A123D
:1002B8008A155D260A128A11710883120313B90080
:1002C8007008B8003808A8003908A900AA01AB01CD
:1002D8002808AE07290803110318013E03197529D8
:1002E800AF072A0803110318013E03197C29B00738
:1002F8002B0803110318013E03198329B1072008AD
:10030800F00025080A128A155D260A128A1171085A
:1003180083120313B9007008B8003808A800390818
:10032800A900AA01AB012808AE0729080311031880
:10033800013E0319A029AF072A0803110318013E3B
:100348000319A729B0072B0803110318013E031945
:10035800AE29B1070830A8000310AE0DAF0DB00DDF
:10036800B10DA80BB0292008F00024080A128A153C
:100378005D260A128A11710883120313B9007008E6
:10038800B8003808A8003908A900AA01AB01280854
:10039800AE07290803110318013E0319D429AF0732
:1003A8002A0803110318013E0319DB29B0072B089B
:1003B80003110318013E0319E229B1072108F000CF
:1003C80026080A128A155D260A128A1171088312F4
:1003D8000313B9007008B8003808A8003908A90044
:1003E800AA01AB012808B407290803110318013E24
:1003F8000319FF29B5072A0803110318013E031939
:10040800062AB6072B0803110318013E03190D2A03
:10041800B7072208F00025080A128A155D260A1275
:100428008A11710883120313B9007008B8003808DC
:10043800A8003908A900AA01AB012808B4072908AF
:1004480003110318013E03192A2AB5072A080311C4
:100458000318013E0319312AB6072B0803110318A4
:10046800013E0319382AB7072208F00026080A12A5
:100478008A155D260A128A11710883120313B900BE
:100488007008B8003808A8003908A900AA01AB010B
:1004980008300310A80DA90DAA0DAB0DFF3E031DD2
:1004A8004D2A2808B407290803110318013E031927
:1004B8005E2AB5072A0803110318013E0319652AA5
:1004C800B6072B0803110318013E03196C2AB70756
:1004D8002E08A8002F08A9003008AA003108AB0090
:1004E80018300310AB0CAA0CA90CA80CFF3E031D76
:1004F800752A2808B407290803110318013E0319AF
:10050800862AB5072A0803110318013E03198D2A04
:10051800B6072B0803110318013E0319942AB707DD
:100528000830A8000310AE0DAF0DB00DB10DA80B2B
:10053800962A33083207A800A901A90D2808823E87
:10054800B80029080318013EFF3EB900C82A013047
:10055800A8000310B40DB50DB60DB70DA80BAD2A44
:10056800B11FB72AB82AB92A34140130A8000310D9
:10057800AE0DAF0DB00DB10DA80BBB2AFF30B807FB
:100588000318B90AFF30B907B61FCB2ACC2AAB2A01
:10059800B201B11FD02AD12AED2AFF302E05A800BA
:1005A800FF302F05A900FF303005AA007F30310544
:1005B800AB002B082A04290428040319E42AE52A95
:1005C800E82AB201B20AED2A341CEB2AEC2AED2AF9
:1005D800E52A32080319F12AF22A232B0130B4073D
:1005E800003003180130B507003003180130B60792
:1005F800003003180130B707371C032B042B232BBB
:100608003408A8003508A9003608AA003708AB0046
:100618000130AC002B0DAB0CAA0CA90CA80CAC0B30
:100628000E2B2B08B7002A08B6002908B5002808A1
:10063800B4000130B8070318B90A0030B9073908FF
:10064800803AFF0080307F02031D2C2BFF303802D8
:10065800031C2F2B302B3B2B7F3083120313B70047
:100668008030B6000030B5000030B4006C2B831227
:1006780003133908803AFF0080307F02031D462BA0
:10068800013038020318492B4A2B562B00308312AD
:100698000313B7000030B6000030B5000030B400D6
:1006A800AD016C2B831203133808B300FF30B40577
:1006B800FF30B5057F30B6050030B705331C652B14
:1006C800662B672BB6173308A8000310280CB70051
:1006D8002D08FF007F08B7043708A3003608A200DA
:1006E8003508A1003408A000080083120313A100F4
:1006F8007A0884008313000884000A128A150A20E5
:100708000A128A11253A031D8A2B8B2B4C2C013097
:10071800FF007A0884007F088007D801D9010310F8
:10072800003003180130DC00FF30DA00FF30DB0056
:100738007A0884000008A200220884000A128A1598
:100748000A200A128A11643A0319AB2BAC2BB82B76
:10075800220884000A128A150A200A128A11693AA4
:10076800031DB72BB82B442C7B0884000008FF001E
:10077800023080077F0884000008A300840A00086C
:10078800A4007A0884002208013E80002030A700D7
:10079800A41BCF2BD12B0130D22B0030A00001306D
:1007A800A7022708A03E84000A30F0000030F100BC
:1007B8002408F3002308F2000A128A11E7260A1215
:1007C8008A117108F7007008F6000A128A15AA251E
:1007D8000A128A117608303E831380000A30F0002E
:1007E8000030F100831203132408F3002308F200F9
:1007F8000A128A1180260A128A11710883120313B9
:10080800A4007008A3002308240403190C2C0D2C41
:10081800122C2708031D112C122CD32B270803197F
:10082800162C172C3D2C200803191B2C1C2C3D2C96
:100838000130A7022708A03E84002D3083138000D2
:100848003D2C2708A03E840083130008FC00FD010E
:100858007C08F0007D08F1002108F2000A128A11D4
:1008680040270A128A110130FF007F088312031300
:10087800A70720302706031D422C432C252C632C68
:100888000130FF007A0884007F0883138007632CF7
:100898007A088400000884000A128A150A200A12BD
:1008A8008A11FC00FD017C08F0007D08F100210898
:1008B800F2000A128A1140270A128A11442C0800F1
:1008C800F80078080319692C6A2C7E2CF31F6D2C0C
:1008D8006E2C7E2C7009FA007109FB007209FC006D
:1008E8007309FD00FA0A0319FB0A0319FC0A031924
:1008F800FD0A862C7308FD007208FC007108FB00D5
:100908007008FA007308720471047004031D8D2CBA
:100918008E2C972C0030F3000030F2000030F100EC
:100928000030F0001B2D9630F900A72C0130FF0095
:100938007F08F90701300310FD0CFC0CFB0CFA0CC6
:10094800FF3E031D9F2CFE307D05031DAC2CAD2CF6
:100958009A2CC92C0130FF007F08F9070130FA07EB
:10096800003003180130FB07003003180130FC0782
:10097800003003180130FD0701300310FD0CFC0C9A
:10098800FB0CFA0CFF3E031DC12CFF307D05031D37
:10099800CE2CCF2CAE2CDB2C0130F9020130F40028
:1009A8000310FA0DFB0DFC0DFD0DF40BD42CFC1BF4
:1009B800DE2CDF2CE52C023079020318E42CE52C20
:1009C800D02C7918E82CE92CF12CFF30FA05FF30EF
:1009D800FB057F30FC05FF30FD050310F90C790895
:1009E800F400F501F601F70118300310F40DF50DC8
:1009F800F60DF70DFF3E031DF92C7408FA0475086F
:100A0800FB047608FC047708FD04780803190D2D0B
:100A18000E2D132DF31F112D122D132DFD177D08EB
:100A2800F3007C08F2007B08F1007A08F000080067
:100A38000C1F1F2D202D922D831603131E088312C1
:100A48000313C40006300310C40CFF3E031D272DFA
:100A58001E08C500C6010310C50DC60D0310C50D3F
:100A6800C60D44084507C700003003180130460783
:100A7800C8004708CD004808CE004D08F0004E08D1
:100A8800F100F201F30100300A128A1164240A12FB
:100A98008A11730883120313A7007208A60071084D
:100AA800A5007008A4003E30A300F930A200DB3096
:100AB800A1002330A0000A128A1134200A128A11D8
:100AC800831203132308BD002208BC002108BB00C1
:100AD8002008BA000A128A119D250A128A11831267
:100AE80003133A08CF000130AC004F08C400C50119
:100AF8004408AD004508AE00C0300A128A15FB252F
:100B08000A128A11C030F5000030F6000A128A1560
:100B18001D270A128A11831203130C134C08FF00B5
:100B28004B088A004A088400490E8300FE0E7E0E98
:100B380009000310831203133C0D3D0DC300430845
:100B4800031DA72DA82DB12D0030BD000030BC001D
:100B58000030BB000030BA00142E3A08BE003B0833
:100B6800BF003C08C0003D08C1001F300310C10C85
:100B7800C00CBF0CBE0CFF3E031DBA2D3E08C200C0
:100B8800BC17FF30BA05FF30BB05FF30BC0500308D
:100B9800BD059630C302C31FD22DD32DED2D4308BA
:100BA800803A973E0318D92DDA2DDB2DA82D013078
:100BB8000310BD0CBC0CBB0CBA0CFF3E031DDC2D96
:100BC8000130FF007F08C307031DEB2DEC2DDB2D43
:100BD800042E20304302031CF22DF32DFF2DA82DE7
:100BE8000130BE000310BA0DBB0DBC0DBD0DBE0B10
:100BF800F62D0130C3024308031D032E042EF42DE5
:100C080042080319082E092E142EBA09BB09BC097B
:100C1800BD09BA0A0319BB0A0319BC0A0319BD0A9C
:100C280008008316031386018612061200300A1282
:100C38008A15AC260A128A11273083160313D800A6
:100C4800F430D700D70B262ED80B262E00005230B2
:100C580083160313D700D70B2F2E000003300A1278
:100C68008A15DF250A128A11073083160313D80064
:100C78007C30D700D70B3E2ED80B3E2E0000033019
:100C88000A128A15DF250A128A11313083160313D6
:100C9800D700D70B4D2E03300A128A15DF250A120A
:100CA8008A1102300A128A15DF250A128A110230C7
:100CB8000A128A15DF250A128A1108300A128A15C3
:100CC800DF250A128A1100300A128A15DF250A1256
:100CD8008A110C300A128A15DF250A128A1100308F
:100CE8000A128A15DF250A128A1106300A128A1595
:100CF800DF250A128A110800F501F11F842E852EBE
:100D08008C2EF009F109F00A0319F10AF501F50A28
:100D1800F31F8F2E902E992EF209F309F20A031968
:100D2800F30A0130FF007F08F506F601F7017008A5
:100D380071040319A02EA12ED82EF401F40AAF2EA7
:100D480001300310F00DF10DFF3E031DA52E0130FB
:100D5800FF007F08F407F11FB22EB32EA42E013036
:100D68000310F60DF70DFF3E031DB42E7108730234
:100D7800031DC02E70087202031CC32EC42ECB2E76
:100D88007008F2027108031CF303F30276140130B1
:100D98000310F10CF00CFF3E031DCC2E0130F402C1
:100DA800031DD72ED82EB32E75080319DC2EDD2E81
:100DB800E22EF609F709F60A0319F70A7708F1008F
:100DC8007608F0000800F501F31FEB2EEC2EF32E49
:100DD800F209F309F20A0319F30AF501F50AF11FFA
:100DE800F62EF72EFC2EF009F109F00A0319F10A84
:100DF800700871040319012F022F312FF401F40A2E
:100E0800102F01300310F00DF10DFF3E031D062FCA
:100E18000130FF007F08F407F11F132F142F052F4F
:100E280071087302031D1A2F70087202031C1D2F0C
:100E38001E2F242F7008F2027108031CF303F3021B
:100E480001300310F10CF00CFF3E031D252F01307B
:100E5800F402031D302F312F142F75080319352F75
:100E6800362F3B2FF209F309F20A0319F30A730824
:100E7800F1007208F000080072080319442F452F8A
:100E88004A2F7208031D492F4A2F512F70080A1242
:100E98008A11FE270A128A11952F7208093E8400CA
:100EA80083130008F300840A0008F400730874042C
:100EB80003195F2F602F7E2F7208093E84000008F7
:100EC800F300840A0008F4007208023E8400000857
:100ED800F500840A0008F6007608803AF7007408DE
:100EE800803A7702031D7A2F7308750203187D2F45
:100EF8007E2F952F7208023E840083130008F300AA
:100F08007208840000087307F400740884007008ED
:100F180080007208023E840001308007840A0318AA
:100F2800800A080083160313DE01DF01C72F83162A
:100F380003135E085907DC005A08DB000318DB0AB4
:100F4800DE1FA72FDB03831603135B08DD005D0894
:100F580083120313FF00831603135C0884008312B3
:100F680003130A128A1500200A128A110A128A1516
:100F78005F270A128A11013083160313DE0703184C
:100F8800DF0A0030DF075E085907DC005A08DB007B
:100F98000318DB0ADE1FD12FDB03831603135B085C
:100FA800DD005D0883120313FF00831603135C083A
:100FB8008400831203130A128A1500200A128A1168
:100FC800003A031DE82FE92F9B2F080000300A1272
:100FD8008A15DF250A128A1101300A128A15DF25BF
:100FE8000A128A111A3083160313D700D70BFA2F67
:060FF800000008000800E3
:10100000FF1B0A2883137F1883170008840A03191B
:10101000FF0A080008308A000408840A82070034A6
:10102000543465346D3470346534723461347434DE
:101030007534723465343A342534643400347A3487
:041040007A340034CA
:101B340064008001840A04060319003404069B2D02
:101B44004134493451345934613469347134793409
:101B5400F71BAD2DAE2DAF2DBA2D7609F800770900
:101B6400F900F80A0319F90A7808F6007908F70069
:101B740008004130831203139F008030831603133F
:101B84009F00831203130C13831603130C170B17F4
:101B94008B1708007E088A007F0882000A128A15C3
:101BA400CC250A128A158000840A04087D060319CC
:101BB4000034FF0A0319FE0AD02D83160313D6003E
:101BC4008312031306128316031356080A128A1586
:101BD400AC260A128A158312031386165230831612
:101BE4000313D500D50BF42D0000831203138612C2
:101BF400080083120313B1002D30B0003108B20085
:101C0400B401B501BB01BC012C08A8003030A90007
:101C140032300A128A151A260A128A1583120313FD
:101C240034083107AF002F088400831380010800B3
:101C340083120313AA002808AB002A2E2B30FA00C3
:101C44002908FB002A080A128A1179230A128A1524
:101C5400831203132B0884000A128A150A200A121D
:101C64008A15003A031D372E382E202EA801A9010B
:101C74000800F000701C3F2E402E442E83120313E4
:101C84000614472E831203130610F01C4A2E4B2E03
:101C94004D2E86144E2E8610701D512E522E542E0B
:101CA4000615552E0611F01D582E592E5B2E86153D
:101CB4005C2E86110800F800F401F5017008F200AA
:101CC400F3017208F6007308F700781C6A2E6B2E75
:101CD400712E7608F4070318F50A7708F507013022
:101CE4000310F60DF70DFF3E031D722E0310F80CC2
:101CF4007808031D7E2E7F2E672E7508F100740868
:101D0400F00008000A128A15BB250A128A150A1265
:101D14008A1115260A128A150A128A11EA270A124A
:101D24008A1583160313D701D70A01300A128A15BC
:101D3400AC270A128A15103083160313D900803099
:101D4400DA000A128A1196270A128A15A82E0A1294
:101D54008A11122883160313D400541CB22EB32EF6
:101D6400B72E831203130614BA2E8312031306101C
:101D740083160313D41CBF2EC02EC42E8312031348
:101D84008614C72E83120313861083160313541D5F
:101D9400CC2ECD2ED12E831203130615D42E8312EE
:101DA4000313061183160313D41DD92EDA2EDE2E47
:101DB400831203138615E12E831203138611080080
:101DC400F40074080F39F2007408F039F300831238
:101DD400031306167308F10004300310F10CFF3EE0
:101DE400031DEF2E71080A128A153B260A128A1562
:101DF4008312031386165330F100F10BFF2E831266
:101E0400031386125330F100F10B062F72080A12E5
:101E14008A153B260A128A15831203138616533039
:101E2400F100F10B132F8312031386125330F100C8
:101E3400F10B1A2F0800FA01FB01422F7A087507EB
:101E4400F8007608F7000318F70AFA1F2A2FF70399
:101E54007708F900790883120313FF0078088400D7
:101E64000A128A1500200A128A150A128A15E22615
:101E74000A128A150130FA070318FB0A0030FB071F
:101E84007A087507F8007608F7000318F70AFA1FAE
:101E94004C2FF7037708F900790883120313FF0026
:101EA400780884000A128A1500200A128A15003A5A
:101EB400031D5D2F5E2F202F080083160313D80007
:101EC40058080F39D6005808F039D7008312031385
:101ED4000616831603135708D50004300310D50CD7
:101EE400FF3E031D702F55080A128A15AC260A12EC
:101EF4008A15831203138616523083160313D500F2
:101F0400D50B822F000083120313861252308316DE
:101F14000313D500D50B8C2F00008316031356082A
:101F24000A128A15AC260A128A158312031386161E
:101F3400523083160313D500D50B9E2F0000831255
:101F440003138612523083160313D500D50BA82F22
:101F54000000080083160313D9005903031DB32F8F
:101F6400B42FD22F57087F3EDC005C08D800043021
:101F74000310D80CFF3E031DBA2F5808DA005C0882
:101F84000F39DB005A080A128A15DF250A128A154E
:101F9400831603135B080A128A15DF250A128A15B1
:101FA4000230831603135906031DD92FDA2FF82F95
:101FB4005708BF3EDC005C08D80004300310D80C7E
:101FC400FF3E031DE02F5808DA005C080F39DB00E0
:101FD4005A080A128A15DF250A128A158316031372
:101FE4005B080A128A15DF250A128A150B3083163C
:0C1FF4000313D800D80BFC2F00000800DD
:02400E00713F00
:00000001FF
